:1000000000000120750300005D0300005F03000095
:1000100061030000630300006503000000000000AE
:100020000000000000000000000000006703000066
:1000300069030000000000006B0300006D03000076
:100040006F0300006F0300004D180000A9180000A6
:100050006F0300006F030000011700006F03000032
:100060006F0300006F0300006F0300006F030000C8
:100070006F0300006F0300006F0300006F030000B8
:100080006F030000F90E00006F0300006F03000013
:100090006F0300006F0300006F0300006F03000098
:1000A0006F0300006F0300006F0300006F03000088
:1000B0006F0300006F03000000000000000000005C
:1000C0006F0300006F0300006F0300006F03000068
:1000D0006F0300006F0300006F03000000000000CA
:1000E0000000000000000000000000000000000010
:1000F0000000000000000000000000000000000000
:1001000000000000000000000000000000000000EF
:1001100000000000000000000000000000000000DF
:1001200000000000000000000000000000000000CF
:1001300000000000000000000000000000000000BF
:1001400000000000000000000000000000000000AF
:10015000000000000000000000000000000000009F
:10016000000000000000000000000000000000008F
:10017000000000000000000000000000000000007F
:10018000000000000000000000000000000000006F
:10019000000000000000000000000000000000005F
:1001A000000000000000000000000000000000004F
:1001B000000000000000000000000000000000003F
:1001C000000000000000000000000000000000002F
:1001D000000000000000000000000000000000001F
:1001E000000000000000000000000000000000000F
:1001F00000000000000000000000000000000000FF
:10020000354936480A1A02D0072291438D463449AF
:1002100034480A1A06D00722914381F30988022242
:1002200082F3148830483149314A00F044F83148AB
:100230003149324A00F03FF831483249324A00F041
:100240003AF832483249334A00F035F832483349F7
:10025000334A00F030F833483349344A00F02BF881
:1002600033483449344A00F026F8344834490022EF
:1002700000F02CF833483449002200F027F83348C6
:100280003349091A082902DB002202604160314A21
:1002900090471F481F49884205D00268043003B4C4
:1002A000904703BCF7E700208646EC46002000217B
:1002B000294A9047FEE7884207D0521A05D00378B2
:1002C00001300B700131013AF9D17047884202D0F8
:1002D00002700130FAE770470000012000E00020C2
:1002E0000000012000000120E83B00000000002089
:1002F00034000020D0030000D003000000370000CD
:10030000E83B000000000020000000206C370000E7
:100310006C3700006C3700006C3700006C37000051
:100320006C3700006C3700006C370000E83B0000C1
:100330001C3C000034000020340000203400002069
:1003400012070020140700201807002018070020BB
:10035000182700209D03000031290000FEE7FEE77A
:10036000FEE7FEE7FEE7FEE7FEE7FEE7FEE7FEE765
:1003700000F002B8FFF7FCBF0F484FF007018843B9
:1003800085460E4880470E48016841F470010160BF
:10039000BFF34F8FBFF36F8FFFF732BF09480A4992
:1003A0000A4A884207D0521A05D0037801300B70F0
:1003B0000131013AF9D1704700000120812A000083
:1003C00088ED00E06C3700000000002000000020F5
:1003D000004870470C070020F0B595B01D46164642
:1003E00008460C4601F07EF81A9B0D93CDE908658E
:1003F00000252B46082205A920460A958DF82C5089
:100400000C9501F08BF8079B0293069B03939DF8D4
:1004100014308DF8115003F00302012A1DD1BDF8EC
:100420001420059DC3F3C203C2F383168DF8103068
:10043000B20008230EA9204601F070F8C5F39525F7
:1004400008AB0093324602AB0EA9284600F0EAFB47
:10045000204601F04BF815B0F0BD022AF8D1BDF8E6
:100460001650C3F3C203C5F389158DF81030082761
:10047000082D2E4628BF08263B4632460EA92046A8
:1004800001F04CF8AD1B08AB02AA31460EA8374468
:1004900000F02CFC002DEBD1DAE70000014B01222B
:1004A0001A707047750000207047000070B50E4D3F
:1004B00006460FCD88B06C460FC495E80F00002E9D
:1004C00084E80F00094A0A484FF0060308BF0022DB
:1004D0006946009301F0BAF808B100F0B4FC054B8E
:1004E0001E7008B070BD00BF6C3700009D04000096
:1004F000000000203400002007B5044B0093044A9C
:100500004023FFF769FF03B05DF804FB1505000009
:100510003500002038B50D480D4C0E4D00232370DA
:100520000378EB5CD2B263B1043001F0ADFF08B1E7
:1005300000F089FC084B1A7812B12378002BFBD00D
:1005400038BD0C3001F04EFDF1E700BF0000002087
:1005500075000020300600203400002008B508484F
:10056000084A0378D35C3BB1043001F0F1FEBDE8EA
:1005700008400020FFF79ABF0C3001F0BDFCF6E701
:1005800000000020300600200120FFF78FBF000090
:1005900008B5FFF7F9FF0448042100F0ADFA034B5A
:1005A00001225A7108BD00BF483700001400002026
:1005B000037813F0040216D003F00303012B03D0D9
:1005C000022B09D0012070470A6800880232C0F36C
:1005D000831002440A60F5E70B684288023303EB9C
:1005E00092130B60EEE71046704700002DE9F04FC4
:1005F000DFF810A10F4685B00446861C0020154682
:1006000000F076FCDAF804203A60DAF8083003F5F6
:1006100080739B1A0AF21C470AF583690AF2144890
:10062000B34219D30020002D68D004F00F039B01C2
:1006300043F0050363F30F00DAF80430DAB2033253
:1006400033444AF822000020CAF8043000F052FC7B
:10065000012005B0BDE8F08F0121384600F079FC9B
:10066000484600F08EFC404600F08BFCDAF80800AB
:100670000090C0B203300AEB80006946FFF798FF94
:10068000009B30BBDAB20AEB8202D16801919A1C5E
:100690000133DBB20AEB83030092D3F80CB001F014
:1006A0000303012B22D0022B15D08346404600F0D5
:1006B0006BFC10B1009BCAF808305946384600F070
:1006C00048FCDAF80830DAF8042003F580739B1A46
:1006D000A6E7D8B2CEE7BDF80630C3F389130333DB
:1006E0004FEA1B4B02EB93030093DFE7BDF80430A6
:1006F000C3F383134FEA1B4B1344F5E7A40544F0FF
:10070000060099E748010020064B074810B5002273
:100710001A7000F0A0FE044610B9044800F008FF6B
:10072000204610BD4801002058370000C0370000A7
:1007300030B50A4C71B10A4A0A49121BD20800238B
:100740009A4201D1002030BD31F82350854202D0B9
:100750000133F5E7034654F83300F4E700370000AF
:100760004837000000000020094B013903EBC000AE
:10077000032909D8DFE801F00A02040604207047C3
:100780000079704740797047002070470220704719
:100790000037000070470000034BD3E90130C31A53
:1007A00058425841704700BF480100202DE9FF41E1
:1007B000FFF7F2FF0546002840F0E980754CC4F8C9
:1007C0001804BFF34F8FA3680093DBB2033304EB2D
:1007D00083006946FFF7ECFE009B18B1D4F818249B
:1007E000002A5AD0DAB2991C013304EB8202DBB240
:1007F00004EB8303D268DB68029302F00303022B4D
:100800000192009154D1BDF806306348C3F38917B3
:10081000502F3E4628BF502606F1080166F38F137D
:10082000C1F30901ADF8063000F02DFE05460028A1
:1008300000F0988000F056FE0023082201A9284607
:1008400000F062FE0099CB43DBB20133C9B2033141
:10085000B6EB830F4FEA830204EB810125D95FFADF
:1008600082F80823A6EB0806284600F04DFEF6B2F3
:1008700008F10803494903F0FC033246284600F01A
:1008800043FE009B033703EB97070097D4F8183417
:10089000002B43D1D4F8106453E062689A4294D894
:1008A000A260284604B0BDE8F08108233246E5E79F
:1008B000012B57D1BDF804303748C3F38311062903
:1008C00028BF062161F38913023101F00F0189006D
:1008D000ADF8043000F0D7FD0546002842D000F006
:1008E00001FE0023082201A9284600F00DFE002683
:1008F000BDF80420C2F38312B300964203F108034B
:10090000C4D200994A1CC9B20331009204EB8101A0
:100910000422284600F0F8FD0136E9E7284600F0F9
:10092000E5FDFFF739FF80F00100C5B2B9E7F368D4
:100930005B7923B1336829461B6830469847F368D2
:100940001E68002EF3D1284600F0D0FD304600F09E
:10095000CFFAD4F818340BB9009BA360002000F044
:10096000C9FADEE7D4F8104454B90D4B0D480E49CE
:10097000C01AC008000440F0020000F05FF8D0E7A1
:10098000236820469B689847E3681C68ECE70025CD
:1009900087E700BF480100205837000054010020BD
:1009A0000037000028370000A93700002DE9F34781
:1009B00004460E46924601A9012218469946FFF7C1
:1009C00015FE1C4F10B3019D4FF00008AA1CC8452E
:1009D00008EB020125D11848002100F097FA80F3B6
:1009E0001000000440EA1440E4006B1C04F03804DA
:1009F000DBB2EDB244F0010407EB8303033544EAB4
:100A0000881444EA8624D86047F825403B781BB117
:100A1000FFF7CCFE0028FBD1FFF7BCFE02B0BDE81B
:100A2000F087C9B207EB81015AF82830CB6008F192
:100A30000108CCE7480100206405002000231A4685
:100A4000FFF7B4BF2DE9F7430446D01C884616468D
:100A500001A900228008FFF7C9FD254D80B3019F41
:100A6000B81C0190C0B2C0F58073B6EB830F00F1E3
:100A700003004FEA830905EB800028D8324641463F
:100A800002F0E4FD1B48002100F040FA80F3100062
:100A90007B1CDBB2FFB2220C05EB8303033742EA77
:100AA0000040E400D86004F0380455F8273044F0E2
:100AB000020444EA865203F47C131A4345F82720C3
:100AC0002B787BB9FFF766FE03B0BDE8F0834A469A
:100AD000414602F0BBFDA6EB090208EB090105F156
:100AE0000C00CDE7FFF762FE0028FBD1EAE700BF6C
:100AF000480100206405002030B50F4CD4F81024C4
:100B000003460020114631B9D96808714AB9C4F8C2
:100B100010340A6030BDC9680D79854206D0096875
:100B2000F1E7D26814680C601360F3E701300A281B
:100B3000E8D14FF0FF30EDE74801002038B5084B11
:100B40000125D3F810441D7004B938BDE3685D7108
:100B5000236820465B689847E3681C68F4E700BF99
:100B60004801002030B5C38885B004460D4633B136
:100B7000144A00921449154A284600F05FFA217A77
:100B800005291DD0637A4BB1A088FFF7EDFD104B0E
:100B9000104953F82020284600F050FA227A0E4BD4
:100BA000A08853F8222003920021FFF7C1FD039A89
:100BB0000A490346284605B0BDE8304000F03EBA79
:100BC00005B030BDEC370000D4370000CC37000052
:100BD00058380000F13700007C380000F43700007E
:100BE00007B503460846197A052911D05B7A2BB15F
:100BF000094A0A49019000F021FA01980849019038
:100C000000F01CFA019803B05DF804EB00F00BBA99
:100C1000002AF8D0F2E700BFEC370000F1370000FF
:100C2000E93700002DE9F04385B01F460C9D0023F5
:100C300095F80C902B7306460C469046294638468C
:100C4000FFF790FFB8F1060F09D8DFE808F00412AB
:100C5000181F283340003146284600F0EFF90022E3
:100C600029463846FFF7BCFF85F80C9005B0BDE873
:100C7000F08322683146284600F0E0F9EFE7D4E936
:100C800000233146284600F0D9F9E8E7A36800932D
:100C90003146D4E90023284600F0D0F9DFE7E368C5
:100CA0000193A36800933146D4E90023284600F05D
:100CB000C5F9D4E723690293E3680193A36800931D
:100CC0003146D4E90023284600F0B8F9C7E7636944
:100CD000039323690293E3680193A3680093314669
:100CE000D4E90023284600F0A9F9B8E708292DE93E
:100CF000F74F80460E4617461C463DD800251B7B05
:100D00002573214610460193FFF72CFFDFF88CA0D6
:100D1000DFF88CB0AE4232D918F80520594620468B
:100D200000F08CF90135082DF4D11B49DFF874A0CF
:100D3000DFF874B0204600F081F94FF000094E450D
:100D400024D918F809507E2D1ED8284602F06CFCD4
:100D5000002814BF2A462E225946204600F06EF97C
:100D600009F10109B9F1080FE9D1012221463846FC
:100D7000FFF736FF019B237303B0BDE8F08F5146A8
:100D8000204600F05BF9CDE72E22E5E751462046EC
:100D900000F054F9E4E700BF083800000438000010
:100DA000FE370000063800000A380000044B1A5CC9
:100DB000012393404FF0A042C2F80835704700BFAE
:100DC0009038000008B50020FFF7F0FF0120FFF782
:100DD000EDFF0220FFF7EAFFBDE808400320FFF720
:100DE000E5BF0000074A4FF0A041105CD1F8043580
:100DF0000122824022EA03001340C1F80805C1F82D
:100E00000C35704790380000C20708B501460CD574
:100E10004FF0A0430322C3F83427C3F83827C3F8A0
:100E20003C27C3F84027FFF7CDFF8B070AD54FF0CB
:100E3000A0430C22C3F82C27C3F83027C3F860273F
:100E4000C3F8642708BD1FB50021039001AA44F22E
:100E50000100CDE9011100F003F805B05DF804FBD5
:100E600038B572B6FFF76AFEFFF7A0FC0028FBD189
:100E7000104B114C114D1249E41AE408240444F0BB
:100E80000100FFF7DBFDD5F8F030DB0700D500BE31
:100E90000C4944F00200FFF7D1FDBFF34F8FEA6821
:100EA000094B02F4E0621343EB60BFF34F8F00BFC6
:100EB000FDE700BF003700002837000000ED00E02C
:100EC0009F380000AB3800000400FA0572B6024AF1
:100ED000136801331360704700060020034A13684B
:100EE000013B136003B962B6704700BF00060020E3
:100EF000FFF7ECBFFFF7F2BF024B034A1B68106815
:100F0000184700BF0C0600200406002010B5034659
:100F100053E8000F0A4643E8002494F0000FF7D18D
:100F200010BD10B5034653E8002F42EA010043E824
:100F3000000494F0000FF6D110BD10B5034653E83D
:100F4000000F00EA010243E8002494F0000FF6D1FC
:100F500010BD10B5034653E8002F02EB010043E833
:100F6000000494F0000FF6D110BD10B5034653E80D
:100F7000002FA2EB010043E8000494F0000FF6D12B
:100F800010BD0121FFF7CDBF0021FFF7D6BF10B57F
:100F900090B1D0E9012301689B1ADBB20A60013BE2
:100FA000DBB2FF2B026802D10020107110BD116866
:100FB0004C1C14600B70F2E70E20F7E738B50446BE
:100FC0000020FFF795FF226863681168994213D9E2
:100FD000481E106011F8013CE568218A01FB0355A9
:100FE000A36811791B1ADBB2994200D21371002059
:100FF000FFF780FF284638BD0025F8E738B50546DD
:1010000000200C46FFF774FF2A681368591C116012
:10101000E968641A298AB4FBF1F41C70BDE8384011
:101020000020FFF767BF826810B504462AB1436904
:101030000168006998470023A36010BD0EB403B592
:10104000039921B104AB01AA019300F077F802B033
:101050005DF804EB03B070470A2938B504460D4625
:1010600002D10D21FFF7F8FFA3682268591CA16087
:10107000D554D4E901329A4204D32046BDE8384021
:10108000FFF7D1BF38BD00002DE9F84F9846DDE9E4
:101090000A43154682460F460A464FF00109AA4206
:1010A0000FD2C14538BFC14613F0010B01D16CB955
:1010B00000240126B8F1010F1BD908F1FF386E4357
:1010C000F8E709F10109B2FBF5F2E8E79B070ED555
:1010D000B8F1000F0CBF30262026A145E9D2013C13
:1010E00031465046FFF7B8FF002CF6D1E0E7202646
:1010F000F3E7B7FBF6F39D42E1D9DFF83C80B7FB9D
:10110000F6F3504618F8031006FB1377FFF7A4FF19
:101110003346AB42B6FBF5F6F1D2BBF1000F02D07D
:101120000CB1A14501D3BDE8F88F20215046013C08
:10113000FFF792FFF4E700BFC23800002DE9F74F38
:10114000054617468846002900F03E8118F8011B25
:1011500049B92B7B002B00F03781284603B0BDE84E
:10116000F04FFFF760BF252940F0B780002698F8C0
:1011700000302D2B424608F1010823D0302B24D01B
:101180002B2B25D000242A2B02F1010123D13B680F
:101190001A1D1B683A601C440A4613782E2B26D170
:1011A00001324FF0000A104610F8011BA1F1300C7B
:1011B000BCF1090F1DD80A2303FB0A13A3F1300A5F
:1011C0000246F0E746F00106D1E746F00206CEE718
:1011D00046F00406CBE711F8013CA3F130000928E2
:1011E000DBD80A2202FB0434303C0A46CBE74FF03E
:1011F000000A12F8011B01F0FB0068289046F8D0A5
:10120000782909D86F290CD8632962D022D82529DA
:1012100063D0582900F0888098F80030002B95D1D1
:1012200097E770390829F7D801A353F821F000BFD8
:10123000A313000019120000191200003913000056
:1012400019120000171300001912000019120000F3
:1012500029130000642901D06929DDD13A68D2F848
:101260000090111D89EAE9723960A2EBE9724FF032
:10127000010B092A35DCD34538BFD3462CB1B9F16F
:10128000000F01DB720700D5013CB30702D5BAF1AC
:10129000000F03D0F00701D44CBB0024B9F1000FBC
:1012A0002DDAC9F100092D212846FFF7D5FE06F0F9
:1012B0000302022A04D1BAF1000F01D11CBB0024A1
:1012C000CDE9004653460A2249462846FFF7DCFE90
:1012D000A2E73B681A1D19783A602846FFF7BCFE62
:1012E0009AE70A230BF1010BB2FBF3F2C1E7A34526
:1012F000D4D220212846013CFFF7AEFECCE771078F
:10130000D5D52B21D0E7A345DAD230212846013CA0
:10131000FFF7A2FED2E73968CDE900460A1D3A6020
:1013200053460A220968D0E739680A1D3A60CDE9B8
:10133000004653461022F5E73B681A1D3A6016F046
:101340000106D3F8009024D1B9F1000F03D048462C
:1013500002F0A5F90646B4421DD809F1FF3919F883
:10136000011F00293FF458AF2846FFF775FEF6E746
:1013700028460136FFF770FE19F806100029F7D14C
:10138000A642BFF449AF20212846013CFFF764FE86
:10139000F6E70026F0E720212846013CFFF75CFE37
:1013A000D9E73B681A1D3A60302128461C68FFF7D0
:1013B00053FE78212846FFF74FFE00220823CDE98F
:1013C00000322146102280E703B0BDE8F08F00BF55
:1013D0002DE9F84FB0F806A04579D2F800B09DF895
:1013E00028900AFB05F5043D88460BEB0301A94252
:1013F00003F1040488BFA5EB030BB4FBFAF6074620
:101400000AFB1644C2F800B04EB9AAEB04055D45CC
:1014100028BF5D46BBF1000F04D1BDE8F88F3F68DF
:10142000013EF1E7043408EB06003C442A46B9F1DA
:10143000000F0DD02146ABEB050B02F007F9DA45A2
:101440002E443F6855464FF0000428BF5D46E1E753
:1014500001462046EFE7FFF79ABDF8B54679014609
:10146000721E0546002393422D6803D30024A64232
:1014700002D8F8BD0133F6E70F682846FFF7BEFD36
:1014800001343946F3E72DE9F843068ACD1C0746B7
:10149000FFF794FD043E35440446B5FBF6F5F0B184
:1014A0004FF48073EDB28380C680013D07608146B2
:1014B0004FF00008A84512D23846FFF77FFD0646D8
:1014C00048B163790133637108F10108C9F800007C
:1014D00007608146EEE72046FFF7BFFF344620460F
:1014E000BDE8F88301210430FFF733BD10B50121B9
:1014F00004460430FFF739FDC0B220B92046BDE8EC
:101500001040FFF7AABF10BD1FB503920022009242
:1015100003AAFFF75DFF05B05DF804FB1FB503925A
:101520000122009203AAFFF753FF05B05DF804FB08
:10153000836800225A60C3E904229A60DA601A6064
:10154000704700007FB503788DF80430436802933C
:1015500083688DF80C30C36804930369064A8DF8DC
:101560001430064B01A853F8213052F82110984747
:1015700007B05DF804FB00BF100600201C06002029
:10158000F0B50546174615F804CB124A42F82C7000
:10159000114A42F82C30114B0C460FCB85B06E46E9
:1015A00086E80F002368009323798DF8053063796E
:1015B0008DF80630A3680293002FA389084AADF87E
:1015C0000C3008BF3A4663463146284600F098F989
:1015D00005B0F0BD1C06002010060020DC3800001D
:1015E000451500001FB503788DF80030436801935E
:1015F00083688DF80830C368054A0393054B684635
:1016000053F8213052F82110984705B05DF804FBDB
:10161000280600202C0600201FB503788DF8003026
:101620004368019383688DF80830C368054A0393C3
:10163000054B684653F8213052F82110984705B001
:101640005DF804FB280600202C060020F0B5194B9D
:1016500090F800C091F81DE043F82C20164B164678
:101660000A6943F82C20154B03F80CE00C4607469A
:101670000FCC89B06D460FC594E80F0085E80F00C8
:10168000CDF810C0BEF1000F09D0002E0C4A6946FB
:1016900008BF3246381D00F099FD09B0F0BD002E9C
:1016A000084A694608BF324607F10C0000F070FB9B
:1016B000F3E700BF2C06002028060020300600209B
:1016C000E51500001916000000F1804000F5C0404B
:1016D000002382B0036003680193019B02B070474E
:1016E000800000F1A040D0F8002722F44032C0F87A
:1016F0000027D0F8003743EA0141C0F800177047CF
:101700002DE9F74F00244E4D01944FF480720121D2
:1017100002F1804303F5C04390B21B68012B06D150
:10172000D5F804330B4202D0FFF7CEFF0C4304324E
:10173000B2F5907F4FEA4101EAD1414BD3F87C31B9
:10174000012B0CD14FF4BE70FFF7BEFF4FF0A0434A
:1017500044F00044D3F820250192C3F82025E3B2D9
:10176000D3B1384F00250126344210D0AB0003F12D
:10177000804303F5C043D3F81005D3F8101557F88C
:10178000253023B1C1F30141C0F30420984701354E
:10179000082D4FEA4606E7D1002C48DA294D4FF0D4
:1017A000A048294E4FF00009012716F9013B5A1CA9
:1017B00031D0C3F3C20208326A44DCB212F8042CFE
:1017C00003F03F0A03F0070307FA03F31A4222D09B
:1017D0000AF5E073504658F82330C3F3014BBBF1D0
:1017E000020F0CBF03210221FFF77AFF07FA0AF369
:1017F000C8F8203505EB0A0393F9303055F823304B
:101800004BB1A109032904D0BBF1020F12D1012968
:1018100001D15046984709F10109B9F1040FC4D12B
:10182000D8F820350193C8F82035002BB9D103B082
:10183000BDE8F08FBBF1030FEDD10229E8E700BF4F
:10184000006000403406002084060020014B1B6825
:10185000184700BF9006002038B50B4B98420C4645
:1018600001D0002038BD0020FFF742FB074B1D7957
:1018700015B901221C601A710020FFF73BFB002DF7
:10188000EFD01120EEE700BF0020004090060020BE
:10189000034B984201BF034B00221A601A71704734
:1018A0000020004090060020124BD3F8182182B08F
:1018B000EAB10022C3F81821D3F818310193019B33
:1018C0000D4BD97FFF2907D0987F01228A404FF026
:1018D000A04148B1C1F80C2500225A771A72D3E909
:1018E0000021064802B01047C1F80825F4E702B00D
:1018F000704700BF0030004098060020A00600207E
:101900002DE9F74F90F80480644E01924FF02409BE
:1019100009FB08F906EB090B9A469BF81C300746B1
:101920000C46002B40F0B58005685D492846FFF75E
:1019300093FF002840F0AF80019B46F80930CBF8B8
:1019400004A094F800E094F80CC04FF0A0420123EA
:1019500003FA0EF3BCF1010F94BFC2F80C35C2F8C4
:1019600008350EF5E073012142F823106378FF2B50
:101970001FBF9940C2F80C1503F5E0714FF0030941
:1019800018BF42F82190A27808BF4FF0FF33FF2A1A
:101990001FBF02F5E0714FF0A04A4FF0040B4AF868
:1019A00021B04FF0240101FB086618BF914686F86C
:1019B0002020E2783949F27708BF4FF0FF39FF2A3B
:1019C00017D094F804A04FF0010B0BFA02FB4FF074
:1019D000A046BAF1000F4ED0C6F80CB502F5E07281
:1019E0004FF0030B46F822B0242202FB081282F8C3
:1019F0001EA0C5F808E5C5F80C35A368C5F8109514
:101A0000C5F82435637B003B18BF0123BCF1020FEE
:101A100034D0BCF1030F34D0BCF1010F01D143F03D
:101A20000203C5F85435A379C5F8C0350723C5F8B6
:101A30000035019BABB13B68627943F30735520136
:101A4000002DC3F30733D2B21EDB164C661986F89D
:101A5000002301226D0903F01F0302FA03F344F887
:101A60002530242303FB081100234B7701230B7738
:101A700003B0BDE8F08FC6F808B5AFE743F0040344
:101A8000CFE743F00603CCE7074C03F00F03E25423
:101A9000E7E70820ECE71120EAE700BF98060020FE
:101AA000A918000000E100E014ED00E02DE9F34189
:101AB0000779474E24237B431446F2180D46517F85
:101AC0008646002940F08180F35823B114F0140FAA
:101AD00004BF0123537795E80F004FF0240C0CFB53
:101AE000076C0CF10C0888E80F009CF81F20FF2AF7
:101AF00008D09CF81E10012393404FF0A042C1B1C2
:101B0000C2F80835296821B101F06043B3F1005FE4
:101B100006D1AA6882B102F06043B3F1005F0BD036
:101B2000242303FB076600237377102002B0BDE86F
:101B3000F081C2F80C35E5E7DEF800306868C3F8DC
:101B40004415C3F84805E968C3F834250022C3F8F2
:101B50003815C3F81821D3F818210192019A14F00E
:101B6000010218BF0122C3F8502514F0020218BF69
:101B70000122C3F8402522075CBF01221A612422FA
:101B80007A43B258B2B9D3F81821002AFBD02423E3
:101B900003FB0766F27FFF2A07D0B07F0123934043
:101BA0004FF0A04218B1C2F80C350020BEE7C2F8D1
:101BB0000835BBE714F004004FF0400202D0C3F830
:101BC0000823F2E7C3F80423B0E71120AEE700BF13
:101BD000980600200023435082B043580193019B94
:101BE00002B070470A4610B54FF48E71FFF7F2FF4E
:101BF000136A9168C95C136A01331362C0F81C153B
:101C000010BD8B690A4610B54FF4847123B9FFF7F4
:101C1000E1FFD0F8183510BDFFF7DCFF536AD1683B
:101C2000D0F81805C854536A01335362F3E7000033
:101C30001FB501238DF80030044BCDE90110D3E925
:101C400000126846904705B05DF804FBBC06002012
:101C500030B54D4DD5F804339A0585B051D5D5F83A
:101C60002431002B4DD04FF492712846FFF7B2FF7C
:101C70004FF40173C5F80833444B93F829200AB98F
:101C800001226A60404902228DF80020D1F88024A8
:101C9000C1F8802403929A690292DA6801920022C4
:101CA000C3E906226846D3E9001290473648D0F8C7
:101CB0001C315BB1354A5169136A99424DD992F88A
:101CC0002830002B49D11146FFF78CFF2E48D0F861
:101CD0004431002B56D04FF4A271FFF77BFF2B4B02
:101CE00093F829200AB1012202609A69002A49D09A
:101CF000586AD96800229A6105B0BDE83040FFF704
:101D000097BFD5F804335B07D0D5D5F80831002B41
:101D1000CCD01E4C1C482146FFF773FF636AA269B2
:101D20009A42C3D1E369E1684BB1A3612369E360DF
:101D30000023606AE3616362FFF77AFFB6E794F815
:101D400029300BB901236B600F4B4FF40172C3F8BC
:101D500008230023606AA361EEE70B484FF48E71FD
:101D6000FFF738FF5369002BB0D05169029100236F
:101D700091688DF80030019153616846D2E90013F3
:101D80009847A3E705B030BD00200040BC06002006
:101D90002DE9F843534D90F804802C2303FB08539E
:101DA000064693F82A300C469146002B40F0968068
:101DB0004D490068FFF750FD0746002840F090802D
:101DC00022683068511C0BD04FF0A0410123934092
:101DD000C1F8083502F5E0734FF0030C41F823C059
:101DE00061684B1C1FBF01F5E0734FF0A04C4FF032
:101DF000000E4CF823E0A369C0F8243594F814C011
:101E0000637DBCF1010F4CEA0303C0F86C35C0F8E8
:101E10001415C0F80C251DD1A268531C1FBF02F574
:101E2000E0734FF0A0414FF0000C41F823C0E3688D
:101E3000591C0BD04FF0A04C01219940CCF808154B
:101E400003F5E0714FF0030E4CF821E0C0F80835BF
:101E5000C0F810252C2202FB08F2AB18C3F804903E
:101E60002369AB50B9F1000F20D04FF48E71247F5D
:101E7000FFF7B0FE4FF4A2713068FFF7ABFE326897
:101E80001A4BC2F80433130B42F307326101002AE4
:101E9000C9B21EDB1648841884F8001301215209C8
:101EA00003F01F0301FA03F340F8223033680422E1
:101EB000C3F800252C2303FB08530022C3E90622A4
:101EC00083F829205A61012283F82A203846BDE888
:101ED000F883084A03F00F03D154E7E70827F5E732
:101EE0001127F3E7BC060020511C0000800002000F
:101EF00000E100E014ED00E0F8B503680579304C2E
:101F00000022C3F800252C2202FB05425268A2B130
:101F10002C4AC3F808231A0B43F30733002B0CDBBE
:101F200002F01F015B0901228A402033264941F853
:101F30002320BFF34F8FBFF36F8F0068D0F80C657D
:101F4000D0F81415D0F80835D0F810254FF0FF3729
:101F5000BE42C0F8147518BF06F5E076C0F80C75DF
:101F6000C0F80875C0F810751EBF4FF0A0474FF0BD
:101F7000020C47F826C04E1C1FBF4FF0A04601F5CB
:101F8000E071022746F82170511C1FBF4FF0A0419D
:101F900002F5E072022641F822605A1C1FBF03F5C9
:101FA000E0734FF0A042022142F82310FFF770FCCB
:101FB0002C2303FB0544002384F82A306360F8BD1A
:101FC000BC0600208402020000E100E00279044B1C
:101FD0002C2101FB02335869003818BF01207047DB
:101FE000BC0600202DE9F84F064690F8048089468B
:101FF0009246FFF7EBFF044600283CD1204F2C25EA
:1020000008FB057B4FF48E71CBF814A0CBF8089039
:10201000CBF820008BF828003068FFF7DBFD306834
:10202000012383605946FFF7DDFDDBF804305D4690
:102030001BBB3068DBF814402B6A9C4211D8336814
:10204000D3F81C21002AFBD00122DA6000202C23C7
:1020500003FB087700237B61BDE8F88F95F82830F3
:102060003BB9D0F81C31002BF8D05946FFF7BAFD28
:10207000E2E70F20EBE71120EEE72046ECE700BF98
:10208000BC0600200023435082B043580193019BBB
:1020900002B070471FB501238DF80030044BCDE925
:1020A0000110D3E900126846904705B05DF804FBC3
:1020B000E80600207FB5434AD2F82461002E60D0A4
:1020C00010464FF49271FFF7DDFF02238DF80030C8
:1020D000D2F88034C2F880340393D2F83C350293AE
:1020E000394BDA6801920022C3E906226846D3E937
:1020F000001290473348D0F8443173B14FF4A271C5
:10210000FFF7C0FF304B9A693AB10022C3E90622BB
:10211000D968D0F83C05FFF7BDFF2A48D0F8203138
:10212000ABB14FF49071FFF7ADFF0123C360264BB5
:102130005A6962B1D0F84C150291002299688DF865
:10214000002001915A616846D3E9001290471D486A
:10215000D0F858319BB14FF4AC71FFF793FF1A4B95
:102160005A6962B1D0F84C150291002299688DF835
:10217000002001915A616846D3E90012904704B0EB
:1021800070BDD2F81031002BB4D04FF488711046D6
:10219000FFF778FF0C4BD2F83C0599698842A9D12A
:1021A000DC69D96864B1D2F8005225F02005C2F884
:1021B00000521A699C61DA60DE61FFF76BFF99E7F4
:1021C0009C61FAE700200040E80600202DE9F84372
:1021D0005A4E90F80480242303FB0863044693F8C6
:1021E00020300D469146002B40F0A38054490068F2
:1021F000FFF732FB0746002840F09D802A682068E0
:10220000511C0BD04FF0A04101239340C1F8083579
:1022100002F5E0734FF0030C41F823C069684B1CD2
:102220001FBF01F5E0734FF0A04C4FF0000E4CF8CB
:1022300023E0AB69C0F8243595F814C06B7DBCF180
:10224000010F4CEA0303C0F86C35C0F80C25C0F848
:1022500014151DD1AA68531C1FBF02F5E0734FF07F
:10226000A0414FF0000C41F823C0EB68591C0BD083
:102270004FF0A04C01219940CCF8081503F5E0710E
:102280004FF0030E4CF821E0C0F80835C0F81025D7
:10229000242202FB08F2B318C3F804902B69B35050
:1022A000B9F1000F2FD04FF488712A7FFFF7EAFEB3
:1022B00020684FF49071FFF7E5FE20684FF49271AB
:1022C000FFF7E0FE20684FF4A271FFF7DBFE4FF44A
:1022D000AC712068FFF7D6FE23681A49C3F80413CF
:1022E000190B43F307335201002BD2B21CDB164803
:1022F000C51885F8002301225B0901F01F0102FACD
:1023000001F140F8231023680822C3F80025242394
:1023100003FB08660023C6E906337361012386F8D0
:1023200020303846BDE8F883084B01F00F015A54BD
:10233000E9E70827F5E71127F3E700BFE8060020E3
:10234000B52000001003420000E100E014ED00E0C1
:10235000F8B5444C0579242303FB054302465B682A
:102360000068ABB1404BC0F8083340F30733002B93
:102370004FEA10310CDB01F01F065B090121B1406F
:1023800020333A4E46F82310BFF34F8FBFF36F8FC1
:10239000D0F8003223F02003C0F80032242303FBDE
:1023A00005439B692BB14FF4A271FFF76BFE01232C
:1023B00043604FF4AC71FFF765FE0123C360242333
:1023C00003FB0543D0F858110029FBD0996919B1D6
:1023D000D0F844110029F5D00023C0F80035136867
:1023E000D3F80C75D3F81465D3F80825D3F8101575
:1023F0004FF0FF3C6745C3F80CC518BF07F5E07701
:10240000C3F814C5C3F808C5C3F810C51EBF4FF004
:10241000A0434FF0020C43F827C0771C1FBF4FF0BA
:10242000A04306F5E076022743F826704E1C1FBF36
:1024300001F5E0714FF0A043022643F82160531CE0
:102440001FBF4FF0A04302F5E072022143F82210B3
:10245000FFF71EFA242303FB0544002384F82030F1
:102460006360F8BDE80600201003420000E100E0D0
:102470000279044B242101FB02335869003818BF4C
:1024800001207047E806002001F06043B3F1005FCF
:102490002DE9F0470646884692463BD190F80490D5
:1024A000FFF7E6FF0446002836D11D4F306824258B
:1024B00005FB09754FF49071C5F814A0C5F80880A4
:1024C000FFF7E0FD4FF4AC713068FFF7DBFD3368D8
:1024D0006A69A968C3F84415C3F8482501229A60BF
:1024E0006A68DAB9D3F82021D3F858011AB900285C
:1024F000F8D00F2007E00028FBD10122DA60D3F8E2
:102500005821002AFBD0242303FB097700237B6199
:10251000BDE8F0871020FBE71120F9E72046F7E738
:10252000E8060020014B01221A70704711070020B5
:1025300038B5054D044645F001054FF47A40A847EB
:10254000013CFAD138BD00BF703900001FB50C4BFB
:102550000FCB6C4684E80F000A4B009301238DF8E3
:102560000C304FF000730293074A084800232146BD
:10257000FFF706F808B1FEF766FC04B010BD00BF17
:10258000603900001A1D1E1F252500007839000043
:1025900010B586B000238DF807000DF107000C4C34
:1025A00002900120CDE9030105920A4823701A46E2
:1025B00002A9FFF77BFA08B1FEF745FC23782BB19F
:1025C000FEF7F4F80028FBD106B010BD20BFF5E7F8
:1025D000110700207C39000007B5002301220DF10E
:1025E00007018DF80730FFF7D3FF9DF8070003B010
:1025F0005DF804FB0720FFF7EFBF07B500230222B9
:1026000001A9ADF80430FFF7C3FFBDF8040040BADC
:1026100080B203B05DF804FB10B586B060F07F00B7
:1026200001AB0E4C8DF8040000228DF805100293CA
:102630000B482270022302A9CDE903320592FFF76D
:1026400035FA08B1FEF7FFFB23782BB1FEF7AEF8A1
:102650000028FBD106B010BD20BFF5E71107002010
:102660007C39000010B504460020FFF7B5FF012CAF
:10267000014608BF40F01001BDE810400CBFC9B2D0
:1026800001F0EF010020FFF7C7BF10B5044600209E
:10269000FFF7A2FF3CB160F07F01C9B2BDE8104076
:1026A0000020FFF7B9BF00F07F01F7E710B504463F
:1026B0000020FFF791FF3CB140F04001C9B2BDE8F6
:1026C00010400020FFF7A8BF00F0BF01F7E708B5F2
:1026D0000020FFF781FF00F0D30040F00201BDE8C9
:1026E00008400020FFF798BF08B5FFF7BBFF0020A8
:1026F000FFF7CBFF0020FFF7D9FFFFF7E8FF064BFE
:1027000006480749C01AC008000440F00300FEF75D
:1027100095F9012008BD00BF0037000028370000F0
:102720000739000010B5FFF7D2FF0120FFF7ADFF1A
:102730000A20FFF7FDFE0020FFF74EFF40F02000CB
:10274000C1B20020FFF768FF4120FFF7F1FE012032
:10275000FFF753FF04460020FFF797FFC4F34F0035
:1027600010BD000000000000F8B52DED048BB0EEA8
:10277000409AF0EE608AFFF7D5FF08EE100A19EED6
:10278000100A00F0B1FD02460B4667A1D1E9000135
:1027900000F08EFC00F0C2FDBBEEE88A07EE100AE6
:1027A00028EE288ADFED5E7AE8EE077A17EE900AC7
:1027B00000F09AFD41EC100B00F04EFE48A3D3E967
:1027C000002351EC100B00F0D3FB47A3D3E9002307
:1027D00000F06EFC00F0A2FD00EE100AB5EEC00A9B
:1027E000F1EE10FA77DAC8EE098ADFED4E7A68EE7C
:1027F000A78A18EE900A00F077FD3DA3D3E90023E5
:1028000000F0BAFB3CA3D3E9002300F0B1FB00F0D9
:1028100085FD00F069FD28EEA88A044618EE100A2E
:102820000D4600F061FD36A3D3E9002300F0A4FBC0
:1028300002460B462046294600F078FA00F06EFD6D
:1028400000F052FD28EE888A044618EE100A0D4664
:1028500000F04AFD2CA3D3E9002300F08DFB0246D3
:102860000B462046294600F083FB00F057FD00F0A0
:102870003BFD28EE888A044618EE100A0D4600F04B
:1028800033FD23A3D3E9002300F076FB02460B4679
:102890002046294600F06CFB68EE887A064617EE63
:1028A000900A0F4600F020FD1BA3D3E9002300F09F
:1028B00063FB04460D463046394600F02FFD00F01C
:1028C00013FD02460B462046294600F02FFA00F081
:1028D00025FD00EE100ABDEC048BF8BDAFF30080BF
:1028E000000000402602703F000000E0AF60B3BE71
:1028F000F163CC5D4BC80140000000E0A3406E4096
:10290000BB82C87D062F653F93C266C7E03DD43EBB
:10291000CE563151E2425E3E3EFAE46127F3E43D99
:10292000178393370000C84288CE19EEAF60C3BE4C
:102930002DE9F3410120FEF767FAFFF707FE4FF498
:1029400080410020FDF7E0FE08B1FEF77CFAFDF7BC
:102950001FFE224C224B2349DFF8A480224E234F36
:10296000E41AE408240444F003042046FEF766F861
:102970001F492046FEF762F80120FFF7B5FE002050
:10298000FEF730FA41462046FEF758F8FFF732FED0
:102990000546307000F083FE294682B22046FEF7DD
:1029A00051F839462046FEF749F8DFED120A9FED4F
:1029B000120AFFF7D9FE3178104B0191084683EDDA
:1029C000000A00F06CFE019982B22046FEF73AF848
:1029D0004FF4FA70FFF7ACFDD1E700BF28370000D5
:1029E0000037000030390000100700205139000086
:1029F000343900000000C8420000C8430C07002022
:102A0000493900004FF08053D3F83001421C04BF15
:102A10004FF0704393F8E00F831F584258417047BE
:102A20004FF0704393F8E02F062A09D1D3F8E83F1E
:102A3000C3F30313033B042B02D8024AD05C704754
:102A4000002070479A3900004FF08053D3F83001CE
:102A5000421C04BF4FF0704393F8E00F062804D0E7
:102A6000A0F10D0358425841704701207047000003
:102A7000024AD2F80034002BFBD0704700E001403E
:102A800010B5FFF7BFFF40B14FF08053984AD3F81D
:102A90002433C3F30423C2F84035FFF7C1FF10B15C
:102AA000944B954A5A67FFF7ADFF48B14FF08053FA
:102AB0004FF08042D3F84432C3F34233C2F83C357E
:102AC000FFF7AEFF30B18D4AD2F8FC3023F08073AF
:102AD000C2F8FC30FFF7B8FF40B14FF0804300224E
:102AE000C3F80C21C3F81021C3F83825FFF798FF6D
:102AF00020B14FF080430322C3F8A025FFF790FFD9
:102B000060B17F4B0522C3F810260122C3F8882646
:102B10000022C3F818263F22C3F814264FF0805332
:102B2000D3F83021511C09BF4FF07043D3F8343132
:102B300093F8E02FD3F8E83F08BFC3F30313062A46
:102B40004ED1033B042B03D86E4AD35C002B49D0F3
:102B50004FF080526C4BD2F80414C3F82015D2F811
:102B60000814C3F82415D2F80C14C3F82815D2F8A9
:102B70001014C3F82C15D2F81414C3F83015D2F879
:102B80001814C3F83415D2F81C14C3F84015D2F841
:102B90002014C3F84415D2F82414C3F84815D2F809
:102BA0002814C3F84C15D2F82C14C3F85015D2F8D9
:102BB0003014C3F85415D2F83414C3F86015D2F8A1
:102BC0003814C3F86415D2F83C14C3F86815D2F869
:102BD0004014C3F86C15D2F84424C3F8702501E002
:102BE0000D2AB5D0FFF70EFF48B14FF080534FF0DC
:102BF0008042D3F8583203F04F03C2F8E43EFFF7A7
:102C000023FF48B14FF08043D3F80024D20744BFDC
:102C10006FF00102C3F800244FF08053D3F8302145
:102C2000062A0ED1D3F83431033B042B02D8374A9D
:102C3000D35C33B1364AD2F83C3743F48063C2F8F0
:102C40003C372E4AD2F8883043F47003C2F88830FB
:102C5000BFF34F8FBFF36F8F4FF08053D3E94C23F7
:102C6000062A3AD1033B042B02D82A4AD35C3BB153
:102C70004FF01023D3F808224FF08043C3F85825B3
:102C80004FF01023D3F80022002A03DBD3F80432DC
:102C9000002B28DA204901234FF01020C1F8043519
:102CA0001524FFF7E5FEC0F80042FFF7E1FEC0F88B
:102CB0000442FFF7DDFE0023C1F80435FFF7D8FE1C
:102CC000BFF34F8F0D49154BCA6802F4E0621343FE
:102CD000CB60BFF34F8F00BFFDE70D2AD0D1022B91
:102CE000C6D80F4AC2E70F4B0F4A1A6010BD00BF8B
:102CF0000030014000C007400DF0ADBA00ED00E02B
:102D0000005000408839000000C000408D390000AC
:102D1000001000409239000000E001400400FA0574
:102D2000973900001C0000200090D00330B591EAD4
:102D3000030F00F18480841A71EB030C05D2121981
:102D400053EB0C03001B71EB0C0140F2000CCFF6AF
:102D5000E07C1CEA430F54D0BCEB410F61D90C0D51
:102D6000A4EB135E31EA0C0141F4801133EA0C0349
:102D700043F48013DEF1200C2AD303FA0CF540193A
:102D800041F1000122FA0EF5401923FA0EF56941CE
:102D900012FA0CF2CD0208D349085FEA30005FEA6C
:102DA000320228BF42F001020134013C5FEA500CBC
:102DB00072F1004250F1000051EB04514FF4001346
:102DC00013EB410F38BF30BD090D0905002030BDA0
:102DD000BEF1200EBEF1200F1ED223FA0EF54019CF
:102DE00041F10001CEF1200C124218BF012203FA7A
:102DF0000CF52A43CEE711EA5C0F04BF0020002146
:102E000030BD1CEA410F04BF01F00041002030BD7D
:102E100001F00041002030BD21F4801101EB04518C
:102E200030BD004218BF41F00101BCEB410F08BFAB
:102E300030BD4FF0FE4141F47801002030BD83F0F9
:102E40000043841A71EB030E07D28EF0004E001B74
:102E500071EB0E01121953EB0E0340F2000CCFF68A
:102E6000E07C1CEA430FC6D0BCEB410F72D90C0DBD
:102E7000A4EB135EC90241EA5051C00241F0004187
:102E8000DB0243EA5253D20243F00043DEF1200C4E
:102E900041D312FA0CF522FA0EF203FA0CF542EACB
:102EA000050218BF42F0010223FA0EF3801A99417D
:102EB000E30AC4F30A0411F0404F03D418D0013CD4
:102EC00040004941013C23D44205C00A40EA415038
:102ED000C90A51EAC3715FEA500C72F1004250F125
:102EE000000051EB045130BD01002FD00020203CE8
:102EF0000029F9D0B1FA81FCDCF1200E11FA0CF1B5
:102F000030FA0EF510FA0CF02943A4EB0C04D9E7C3
:102F10000020D90730BDAEF1200EBEF1200F0DD23A
:102F2000CEF1200C03FA0CF533FA0EF32A4318BF46
:102F300043F00103C01A61F10001B9E721F000413B
:102F4000C00A40EA4150C90A01EB045130BD0020DB
:102F5000002130BD004218BF41F00101BCEB410F20
:102F60007FF467AFBCEB430F3FF463AF30BD00BFEE
:102F700083F00043FFF7DABEF0B540F2FF7681EA56
:102F8000030C16EA115E1EBFB64516EA1355B5428C
:102F90005AD021EA465141F48011A1FB024723EAAD
:102FA000465343F48013AE44A0FB03650CF0004C81
:102FB00036197D41A1FB034747F10003A0FB02172F
:102FC000F619654153F10003094218BF46F00106A6
:102FD00040F2FE74B3F5007F13D2AEF5806EA645C5
:102FE0002BD24CEA0331280341EA155140EA16502E
:102FF0003203450872F1004250F1000051EB0E51CE
:10300000F0BDAEF2FF3EA64517D24CEAC321E8025E
:1030100041EA555140EA5650F202450872F1004229
:1030200050F1000051EB0E51F0BD0CF0004141F0A9
:10303000FE4141F470010020F0BD1EEA0E0FF4D5F0
:103040000CF000410020F0BD16EA115F04BF01F052
:1030500000410020004218BF41F0010116EA135F51
:1030600004BF03F000430022124218BF43F00103E3
:1030700006EA1354B44218BF9EEA060F03D00CF0C0
:1030800000410020F0BD21F0004123F00043B1EBEE
:10309000065F06D8B3EB065F03D8002918BF002BE4
:1030A000C3D140F20001C7F6F8710020F0BD00BFA7
:1030B0002DE9F04391EA030E0EF0004E40F20007B6
:1030C000CFF6E07717EA41051EBF95EA070F17EA2A
:1030D000430595EA070F00F0A1807F0D17EA13560C
:1030E00023EA475343F4801317EA115521EA475165
:1030F00041F48011AD1B05F2FD354FEAD31C1CF1E4
:10310000010C4FF00047B7FBFCF77F01A2FB079CC7
:103110000024E3FB07C4DCF1000CD9F100097CF1C9
:10312000000CA0FB07620020E1FB072000275FEAFC
:10313000C628E0FB0987760D46EAC226520DF6192D
:1031400000277A41E0FB0C625FEAC823E2FB093703
:103150005FEA585848EAC628760D18EB07080021A0
:103160004E41E2FB0C8602EBC020DA02E6FB0921AD
:103170005B0D43EAC8235FEA58585B18002758EBF9
:103180000708E6FB0C38D102E8FB0917520D42EAAA
:10319000C3225B0DD21900277B41E8FB0C2308EB0F
:1031A000C6265FEAC128E3FB0987490D41EAC2212F
:1031B000520DC91942F10002E3FB0C12470019EB52
:1031C00008095CEB010C72EB040453EBC62047EBDF
:1031D00056530026B3F5000F7641AD190236D6F1ED
:1031E000200910FA09F4F04013FA09F21043F340F1
:1031F000E40F001943F10003B3F5001F24BF5B087F
:10320000013540F2FE77BD4204D24EEA0551194421
:10321000BDE8F0832D4224D5714626E0004218BF58
:1032200041F00101124218BF43F00103B7EB410F17
:103230002CBFB7EB430F1BE0B7EB410F04BFB7EB5D
:10324000430F15E017EA410F04BF17EA430F0FE0E1
:1032500017EA410FE0D017EA430F02D0B7EB430F54
:10326000DAD04EF0FE4141F470010020BDE8F08359
:1032700040F20001C7F6F871F7E700BF4FF4001CF9
:103280001CEB410F98BF1CEB430F0CD850EA410CCC
:1032900008BF52EA430C08D0904208BF99420CBFC5
:1032A000012000207047002070470120704700BFB8
:1032B0004FF4001C1CEB410F98BF1CEB430F11D8BF
:1032C00051EA030C50EA4C0C5CEA020C0AD004D21E
:1032D0009042994180414042704782428B418041F7
:1032E0004042704700207047C0F3C75191B142007F
:1032F0004FEA40704FEAD2014FEA310101F16051CB
:10330000B2F17F4F38BF704701F1605118BF41F4EF
:103310000021704710F000410020704701F000428A
:103320008B1AA3F16051B1F5801F0ADBB1F17F6FF9
:1033300009D242EAC102C10071F1004142EB507072
:1033400070471046704701285B4113F5001F04D8F1
:1033500042F0FE4040F400007047C90041EA50705E
:1033600040EA020040F4800040F08040704700BF17
:1033700051EC100B0128494111F5001F80414042DA
:10338000704700BF2DE9F04155EC104B80460022FC
:1033900010EE100A0023294610EE106AFFF76EFFA8
:1033A00030B1002345EC104BC8F80030BDE8F08187
:1033B00025F0FF4323F4E00343F07F57C5F30A539E
:1033C00047F40017A3F2FE3347EC106BC8F8003047
:1033D000BDE8F081000000002DE9704355EC104B72
:1033E0000646002210EE100A0023294610EE108A2D
:1033F000FFF744FFB0B9C5F30A53334440F2FE72FD
:10340000934213DC002E01DB002B0FDB002B09DDC8
:1034100025F0FF4222F4E00242EA035949EC108B06
:10342000BDE870839FED060BBDE8708300F004F9E2
:10343000074B1B6803609FED040BBDE8708300BF62
:103440000000000000000000000000000000F07F0D
:10345000E43B000000000000F0B555EC104B83B0D9
:1034600010EE100A002200232946FFF707FF18B1CB
:1034700045EC104B03B0F0BD45EC104BFFF778FF67
:103480000028F5D00022002320462946FFF710FF30
:10349000002860D145EC104B01A8FFF773FF55ECF5
:1034A000104B10EE100A33A3D3E900232946FFF78F
:1034B00063FD32A3D3E90023FFF738FC06460F462D
:1034C00002460B4620462946FFF7F2FD32463B46B0
:1034D000FFF72CFC41EC100B4FF0FF30FFF77CFFA7
:1034E00057EC106B10EE102A3B4620462946FFF79A
:1034F000DFFD32463B46FFF719FC41EC100B4FF065
:10350000FF30FFF769FF2046294655EC104B10EEBF
:10351000102A2B46FFF7CCFD22462B46FFF706FC70
:1035200041EC100B4FF0FF30FFF756FF019CE30713
:103530000AD551EC100B13A3D3E90023FFF71CFDB0
:10354000013441EC100B019404EBD4746010FFF7CC
:1035500043FF03B0F0BD00F06FF8054B1B6803603C
:103560009FED010B86E700BF000000000000F87F20
:10357000E03B000018096D3997E2E23FF7CC92007A
:1035800035B5DA3FCD3B7F669EA0E63F7F2805D864
:10359000034A044B105C5B5C184070470020704786
:1035A000AC3900002C3A0000A0F16103192B98BF40
:1035B00020387047A0F14103192B98BF2030704785
:1035C0007F299ABF017001206FF02E00704700BF65
:1035D0005AB10A787F2A0AD800B102600021501A35
:1035E000C3E9001118BF01207047104670476FF003
:1035F0002E007047A0F16103192B98BF2038704747
:10360000A0F14103192B98BF203070477F2805D8BF
:10361000034A044B105C5B5C184070470020704705
:10362000AC3900002C3A0000024B5B689B68092112
:103630001B6818472000002000B5FCF7C9FE024BAC
:1036400018445DF804FB00BF08000000844640EA0F
:10365000010313F0030F18D18446202A0BD32DE960
:10366000F007B1E8F807A0E8F807A2F12002202A45
:10367000F7D2BDE8F007042A07D351F8043B40F81D
:10368000043BA2F10402042AF7D2002A05D011F863
:10369000013B00F8013B013AF9D16046704700F167
:1036A000010110F0030F11D010F8012B002A23D0D4
:1036B00010F0030F0AD010F8012B002A1CD010F0D4
:1036C000030F03D010F8012B002A15D02DE970004C
:1036D0004FF001324FF0803350F8044BA4EB020559
:1036E00025EA04051D4000D1F6E7A0F1040070BCF6
:1036F00010F8012B002AFBD1A0EB0100704700005D
:10370000EC38000000000000F3380000000000006A
:10371000F738000000000000FC3800000000000046
:103720000139000000000000BA3700000000030368
:103730009438000000000000B838000000000000CD
:08374000D23800000000000077
:103748008C370000000000009837000014000020AB
:10375800780000204001002048010020800000205F
:043768001800000045
:10376C00FFFFFFFFFFFFFFFFFFFFFFFFFFFFFFFF5D
:10377C0000000000000000000000D601060100005F
:10378C00F90400005D050000A90400007561727465
:10379C005F6C6F675F6261636B656E64004261634F
:1037AC006B656E647320666C75736865640061701C
:1037BC0070000000680500207F000000E805002074
:1037CC001B5B313B33316D0025734C6F6773206489
:1037DC00726F70706564202825642925730D0A00AA
:1037EC001B5B306D002573003C25733E2025733A1E
:1037FC002000202530327800202020007C0025631A
:10380C00001B5B313B33306D001B5B313B33326D46
:10381C00001B5B313B33336D001B5B313B33346D31
:10382C00001B5B313B33356D001B5B313B33366D1D
:10383C00001B5B313B33376D007761726E696E67CD
:10384C0000696E666F00646562756700EC37000096
:10385C000D380000CC370000153800001D38000072
:10386C00253800002D380000353800003D380000A8
:10387C0000000000A5380000453800004D3800005D
:10388C00523800000D0E0F106170705F6275747409
:10389C006F6E00466174616C206572726F720053BA
:1038AC00797374656D207265736574006170705FF7
:1038BC0074696D65720030313233343536373839CE
:1038CC00414243444546736F72746C6973740000D3
:1038DC00FFFFFFFF0006FF0000000040000000009B
:1038EC004750494F544500505253005350494D00D6
:1038FC005541525400554152544500496E69746902
:10390C00616C697A6174696F6E206F66204D4158E5
:10391C003331383635207761732073756363657383
:10392C0066756C000A0A0A00535049206578616D6F
:10393C00706C6520737461727465642E00466175D9
:10394C006C743A200054656D7065726174757265A3
:10395C003A200000FFFFFFFF06FF000000000040C0
:10396C00000000000338FDD8704700000000000084
:10397C0000300040000000000100000000000101C8
:10398C000100000001010000000001000001010025
:10399C000000000043000000504F53495800000045
:1039AC0020202020202020202068282828282020A3
:1039BC0020202020202020202020202020202020FB
:1039CC0048101010101010101010101010101010B3
:1039DC008484848484848484848410101010101053
:1039EC0010818181818181010101010101010101AC
:1039FC000101010101010101010101101010101060
:103A0C00108282828282820202020202020202027C
:103A1C000202020202020202020202101010102024
:103A2C000007032004170201085710408000000013
:103A3C00A0390000A43A0000B83B000053756E009A
:103A4C004D6F6E00547565005765640054687500C1
:103A5C004672690053617400000000004A616E00F8
:103A6C00466562004D617200417072004D617900D3
:103A7C004A756E004A756C0041756700536570009D
:103A8C004F6374004E6F76004465630000000000C5
:103A9C00414D00504D000000DC3B0000D83B0000C5
:103AAC00D83B0000D83B0000D83B0000D83B0000BE
:103ABC00D83B0000D83B0000D83B0000D83B0000AE
:103ACC00FFFFFFFFFFFFFFFFFFFFFFFFFFFF0000F8
:103ADC00183B0000483A0000543B0000683A0000D4
:103AEC009C3A0000FC3A0000AC3B0000083B000094
:103AFC00256D2F25642F25790000000025612025D8
:103B0C0062202565202554202559000053756E64CC
:103B1C006179004D6F6E64617900547565736461F1
:103B2C0079005765646E65736461790054687572C9
:103B3C0073646179004672696461790053617475CC
:103B4C0072646179000000004A616E7561727900DF
:103B5C004665627275617279004D617263680041ED
:103B6C007072696C004D6179004A756E65004A751A
:103B7C006C79004175677573740053657074656D6D
:103B8C00626572004F63746F626572004E6F76658A
:103B9C006D62657200446563656D6265720000005C
:103BAC0025483A254D3A2553000000008D3500007C
:103BBC00A9350000B53500000D360000F5350000C4
:103BCC0001360000C1350000D135000000000000B6
:0C3BDC002E00000021000000220000006C
:103BE800000000000020004000000000002000400D
:103BF8000000000000000000FF0000000090D0035B
:103C08003C3A00003C3A00003C3A00003C3A0000D4
:043C18003C3A000032
:040000030000037581
:00000001FF
